:020000040800F2
:100000000000022095A100085D1800086118000892
:1000100065180008691800086D1800080000000045
:10002000000000000000000000000000711800083F
:100030007518000800000000791800087D180008F5
:10004000E5A10008E5A10008E5A10008E5A1000878
:10005000E5A10008E5A10008E5A10008E5A1000868
:10006000E5A10008E5A10008E5A10008E5A1000858
:10007000E5A10008E5A10008E5A10008E5A1000848
:10008000E5A10008E5A10008E5A10008E5A1000838
:10009000E5A10008E5A10008E5A10008E5A1000828
:1000A000E5A10008E5A10008E5A10008E5A1000818
:1000B000E5A10008E5A10008E5A10008E5A1000808
:1000C000E5A10008E5A10008E5A10008E5A10008F8
:1000D000E5A10008E5A10008E5A10008E5A10008E8
:1000E000E5A10008E5A10008E5A10008E5A10008D8
:1000F000E5A10008E5A10008E5A10008E5A10008C8
:10010000E5A10008E5A10008E5A10008E5A10008B7
:10011000E5A10008E5A1000881180008E5A1000894
:10012000E5A10008E5A10008E5A10008E5A1000897
:10013000E5A10008E5A10008E5A10008E5A1000887
:10014000E5A10008E5A10008E5A100081DAA000836
:10015000E5A10008E5A10008E5A10008E5A1000867
:10016000E5A10008819D0008E5A10008E5A10008BF
:10017000E5A10008E5A100089D180008A9180008DD
:10018000E5A10008E5A10008E5A10008E5A1000837
:10019000E5A1000800000000E5A10008E5A10008B5
:1001A000D5910008E5A10008E5A10008E5A1000837
:1001B000E5A10008E5A10008E5A10008E5A1000807
:1001C000E5A10008E5A10008E5A10008E5A10008F7
:0801D000E5A10008E5A100080B
:1001D800830730B547D0541E002A3ED0CAB2034622
:1001E80001E0013C39D303F8012B9D07F9D1032C19
:1001F8002CD9CDB205EB05250F2C05EB054535D9D6
:10020800A4F1100222F00F0C03F1100EE6444FEA9D
:10021800121C1A46C2E90055C2E90255103272454D
:10022800F8D10CF1010214F00C0F03EB021204F0E8
:100238000F0C13D0ACF1040323F00303043313446D
:1002480042F8045B9342FBD10CF003042CB1C9B211
:100258001C4403F8011BA342FBD130BD644613467E
:10026800002CF4D1F9E703461446C0E71A46A44621
:10027800E0E700BF70B50F4B0F4DAB42A3EB05068F
:1002880007D0B610002455F8043B01349847A6421D
:10029800F9D809F0A5FF094D094B5E1BAB424FEA9F
:1002A800A60606D0002455F8043B01349847A64218
:1002B800F9D870BDF0AD0008F0AD0008F0AD000849
:1002C80000AE000870B54FF0FF0C4CF4E06C1CEA6F
:1002D80011541DBF1CEA135594EA0C0F95EA0C0F34
:1002E80000F0DEF82C4481EA030621EA4C5123EAA7
:1002F8004C5350EA013518BF52EA033541F48011D6
:1003080043F4801338D0A0FB02CE4FF00005E1FB88
:1003180002E506F00042E0FB03E54FF00006E1FBD2
:1003280003569CF0000F18BF4EF0010EA4F1FF0415
:10033800B6F5007F64F5407404D25FEA4E0E6D4155
:1003480046EB060642EAC62141EA55514FEAC52066
:1003580040EA5E504FEACE2EB4F1FD0C88BFBCF5E2
:10036800E06F1ED8BEF1004F08BF5FEA500E50F193
:10037800000041EB045170BD06F0004646EA010159
:1003880040EA020081EA0301B4EB5C04C2BFD4EB8B
:100398000C0541EA045170BD41F480114FF0000E84
:1003A800013C00F3AB8014F1360FDEBF002001F0F2
:1003B800004170BDC4F10004203C35DA0C341BDC6C
:1003C80004F11404C4F1200500FA05F320FA04F03E
:1003D80001FA05F240EA020001F0004221F0004172
:1003E80010EBD37021FA04F642EB06015EEA430EE5
:1003F80008BF20EAD37070BDC4F10C04C4F1200515
:1004080000FA04F320FA05F001FA04F240EA0200C7
:1004180001F0004110EBD37041F100015EEA430E98
:1004280008BF20EAD37070BDC4F1200500FA05F2B8
:100438004EEA020E20FA04F301FA05F243EA020337
:1004480021FA04F001F0004121FA04F220EA020046
:1004580000EBD3705EEA430E08BF20EAD37070BD8C
:1004680094F0000F0FD101F00046400041EB01016C
:1004780011F4801F08BF013CF7D041EA060195F04E
:10048800000F18BF704703F00046520043EB030308
:1004980013F4801F08BF013DF7D043EA06037047F5
:1004A80094EA0C0F0CEA135518BF95EA0C0F0CD000
:1004B80050EA410618BF52EA4306D1D181EA030146
:1004C80001F000414FF0000070BD50EA410606BF40
:1004D8001046194652EA430619D094EA0C0F02D185
:1004E80050EA013613D195EA0C0F05D152EA0336CA
:1004F8001CBF104619460AD181EA030101F00041E8
:1005080041F0FE4141F470014FF0000070BD41F030
:10051800FE4141F4780170BD81F0004102E000BF66
:1005280083F0004330B54FEA41044FEA430594EAAB
:10053800050F08BF90EA020F1FBF54EA000C55EAE6
:10054800020C7FEA645C7FEA655C00F0E2804FEAB7
:100558005454D4EB5555B8BF6D420CDD2C4480EA99
:10056800020281EA030382EA000083EA010180EAC9
:10057800020281EA0303362D88BF30BD11F0004F17
:100588004FEA01314FF4801C4CEA113102D040424D
:1005980061EB410113F0004F4FEA03334CEA133388
:1005A80002D0524263EB430394EA050F00F0A780A0
:1005B800A4F10104D5F1200E0DDB02FA0EFC22FA9B
:1005C80005F2801841F1000103FA0EF2801843FA8F
:1005D80005F359410EE0A5F120050EF1200E012A80
:1005E80003FA0EFC28BF4CF0020C43FA05F3C018BE
:1005F80051EBE37101F0004507D54FF0000EDCF137
:10060800000C7EEB00006EEB0101B1F5801F1BD3DF
:10061800B1F5001F0CD349085FEA30004FEA3C0CE3
:1006280004F101044FEA445212F5800F80F09A80D9
:10063800BCF1004F08BF5FEA500C50F1000041EBDD
:10064800045141EA050130BD5FEA4C0C404141EBE1
:100658000101013C28BFB1F5801FE9D291F0000FDC
:1006680004BF01460020B1FA81F308BF2033A3F18B
:100678000B03B3F120020CDA0C3208DD02F1140C82
:10068800C2F10C0201FA0CF021FA02F10CE002F1BD
:100698001402D8BFC2F1200C01FA02F120FA0CFCB6
:1006A800DCBF41EA0C019040E41AA2BF01EB0451FF
:1006B800294330BD6FEA04041F3C1CDA0C340EDCFD
:1006C80004F11404C4F1200220FA04F001FA02F340
:1006D80040EA030021FA04F345EA030130BDC4F1FE
:1006E8000C04C4F1200220FA02F001FA04F340EAF3
:1006F8000300294630BD21FA04F0294630BD94F0A4
:10070800000F83F4801306BF81F480110134013D8A
:100718004EE77FEA645C18BF7FEA655C29D094EAFB
:10072800050F08BF90EA020F05D054EA000C04BF79
:100738001946104630BD91EA030F1EBF0021002064
:1007480030BD5FEA545C05D14000494128BF41F003
:10075800004130BD14F580043CBF01F5801130BD67
:1007680001F0004545F0FE4141F470014FF00000F2
:1007780030BD7FEA645C1ABF194610467FEA655CA3
:100788001CBF0B46024650EA013406BF52EA033545
:1007980091EA030F41F4002130BD00BF90F0000F33
:1007A80004BF0021704730B54FF4806404F132046F
:1007B8004FF000054FF0000150E700BF90F0000F28
:1007C80004BF0021704730B54FF4806404F132044F
:1007D80010F0004548BF40424FF000013EE700BF1F
:1007E80042004FEAE2014FEA31014FEA02701FBFAF
:1007F80012F07F4393F07F4F81F06051704732F0E1
:100808007F4208BF704793F07F4F04BF41F4002137
:10081800704730B54FF4607401F0004521F0004195
:100828001CE700BF50EA010208BF704730B54FF01F
:1008380000050AE050EA010208BF704730B511F020
:10084800004502D5404261EB41014FF4806404F158
:1008580032045FEA915C3FF4D8AE4FF003025FEADE
:10086800DC0C18BF03325FEADC0C18BF033202EB62
:10087800DC02C2F1200300FA03FC20FA02F001FABC
:1008880003FE40EA0E0021FA02F11444BDE600BF5F
:100898004FEA4102B2F1E04324BFB3F5001CDCF19A
:1008A800FE5C0DD901F0004C4FEAC0024CEA5070D2
:1008B800B2F1004F40EB830008BF20F00100704701
:1008C80011F0804F21D113F13872BCBF01F0004004
:1008D800704741F480114FEA5252C2F11802C2F136
:1008E800200C10FA0CF320FA02F018BF40F00100B7
:1008F8004FEAC1234FEAD32303FA0CFC40EA0C0069
:1009080023FA02F34FEA4303CCE77FEA625307D1A5
:1009180050EA01331EBF4FF0FE4040F440007047DC
:1009280001F0004040F0FE4040F40000704700BF76
:1009380010B5054C237833B9044B13B10448AFF311
:1009480000800123237010BD60000020000000001B
:10095800E8A1000808B5034B1BB103490348AFF3EE
:10096800008008BD0000000064000020E8A1000825
:1009780010B594B03822002106A8FFF729FC002002
:10098800CDE90100CDE90300059003F0A1F89FED42
:10099800147B0522022303240F9206A844228DED1E
:1009A800067BCDE90D34CDE91023CDE9123302F0F1
:1009B800C7F808B172B6FEE7042103460F220DEB13
:1009C8000100CDE90124CDE90333059302F036FB9C
:1009D80008B172B6FEE714B010BD00BFAFF30080D7
:1009E800010000000000010008B502F049F8FFF717
:1009F800BFFF00F02FF807F0B3FB06F0E5FE00F0AC
:100A080089F800F04FF900F073FB00F031FE00F0B8
:100A1800F1FB00F085FC00F027FC00F0E5F900F0A0
:100A2800C3FC00F0A7FC07F0D5FB08F049F807F075
:100A3800B1FC07F0B7FB07F0E5FB07F0C5FC07F0D2
:100A4800DDFC00F0A5FE07F08BFC09F047FBFEE794
:100A580072B6FEE770B500248AB0CDE90444CDE94A
:100A680006442A4B0894DA6C294E42F00402DA64F0
:100A7800DA6C02F004020092009ADA6C42F020026A
:100A8800DA64DA6C02F020020192019ADA6C42F020
:100A98000102DA64DA6C02F001020292029ADA6C5C
:100AA80042F00202DA64DB6C03F00203039322468D
:100AB80030468021039B02F01BFF22464FF4004181
:100AC8004FF0904002F014FF01254FF4005200232C
:100AD80004A93046CDE90423069502F045FD80239C
:100AE800304604A90493CDE90554079402F03CFD6F
:100AF8004FF40042032304A94FF09040CDE90425A8
:100B0800CDE9064302F030FD0AB070BD0010024086
:100B18000008004810B5002492B0202221460AA8F7
:100B2800CDE90144CDE90444CDE90644CDE90844C2
:100B380000940394FFF74CFB52480123436180F86B
:100B480038300423836103624FF0A0424FF44033EE
:100B5800C0E900234FF4D4614FF48063C0E90B135C
:100B68004FF48053C0E902440461848380F8244030
:100B780080F84040C36300F0BDFE002866D14FF402
:100B880000430622CDE900233E480023694602932C
:100B980001F0AAFE002872D13B493C4A05924FF465
:100BA80040000023CDE9031040F6FF7235488DF868
:100BB800183003A9CDE90723099301F091FA002819
:100BC8005AD1334A2F480623CDE90A2302217F232D
:100BD800CDE90C13042200230AA9CDE90E2300F065
:100BE800E3FF002845D12B4A26480C230AA9CDE962
:100BF8000A2300F0D9FF002838D1244A21481223BB
:100C08000AA9CDE90A2300F0CFFF60BB224A1D489C
:100C180018230AA9CDE90A2300F0C6FF00BB1F4C20
:100C28001B4B184805934FF0E07203A9CDE9034226
:100C380001F056FA88B91A4A164B1248039203A9CA
:100C4800059301F04DFA20B912B010BDFFF700FF6F
:100C580095E7FFF7FDFE12B010BDFFF7F9FEEAE7D2
:100C6800FFF7F6FEDBE7FFF7F3FECFE7FFF7F0FE4F
:100C7800C3E7FFF7EDFEB6E7FFF7EAFEA1E7FFF7E8
:100C8800E7FE89E7180200200000C07D00106032EE
:100C98000002B025000180210800900CFFFF17001A
:100CA800FFFF270010B52022002490B00DEB0200B2
:100CB8002146CDE90144CDE90344CDE90544079433
:100CC800FFF786FA4148424A84834FF44033C0E92B
:100CD80000230123C0E904430423836103624FF422
:100CE8008053C0E9024480F8244080F83840C36348
:100CF80080F8404000F0FEFD002850D13549364AC2
:100D080003924FF440000023CDE9011040F6FF7232
:100D18002E488DF8103001A9CDE90523079301F07D
:100D2800DFF900284ED12D4A28480623CDE90823AB
:100D380002217F23CDE90A130422002308A9CDE963
:100D48000C2300F031FF002839D1234A1F480C2317
:100D580008A9CDE9082300F027FF68BB12231B4828
:100D6800099308A900F020FF18BB1D4A174818234B
:100D780008A9CDE9082300F017FFB8B9194C174A9C
:100D880003924FF0E070CDE9014001230F488DF840
:100D9800103001A901F0A4F920B910B010BDFFF777
:100DA80057FEABE7FFF754FE10B010BDFFF750FE3B
:100DB800E4E7FFF74DFED8E7FFF74AFECEE7FFF777
:100DC80047FEC2E7FFF744FEADE700BFAC010020D5
:100DD800000100500000C07D0800900C2000F014B5
:100DE8008000501DFFFF170010B588B02022002199
:100DF8006846FFF7EDF9234C23484FF44031C0E92A
:100E080000410421816102210023012201624FF483
:100E18008051C0E90233C0E90432C0E90B3383834F
:100E280080F8243080F83820C16380F8403000F022
:100E380061FDE0B9154914480623CDE900137F2464
:100E48000422029369460023CDE90342059300F08A
:100E5800ABFE98B90E4C0C480C2205236946CDE927
:100E68000042029300F0A0FE20B908B010BDFFF7C1
:100E7800EFFDDFE7FFF7ECFD08B010BDFFF7E8FD79
:100E8800E8E700BF00050050400100202000F014F2
:100E98001000C01070B50446A4B0002154220FA859
:100EA800CDE90A11CDE90C110E91FFF791F92368EC
:100EB800B3F1A04F08D0844A934278D0834A934232
:100EC80000F0B98024B070BD4FF400424FF00053D9
:100ED8000FA80F92209302F0BBF9002840F0EA8097
:100EE8007B4A13680133012B136009D1794BDA6C03
:100EF80042F40052DA64DB6C03F400530193019B63
:100F0800744B7548DA6C754D42F00402DA64DA6C99
:100F180002F004020292029ADA6C42F00102DA64E8
:100F2800DA6C02F001020392039ADA6C42F00202D0
:100F3800DA64DB6C03F00203002604930C2203231B
:100F48000AA9CDE90A230C96049B02F00DFB0422A2
:100F580003230AA94FF09040CDE90A230C9602F02A
:100F680003FB022203230AA95D480C96CDE90A2354
:100F780002F0FAFA5B4A0523C5E90023C5E90266CF
:100F880080234FF400712B614FF40063C5E905130A
:100F980020224FF44053C5E90723284602F0AEFC4F
:100FA800002840F084806565AC6224B070BD4FF4C1
:100FB80000424FF000530FA80F92209302F048F917
:100FC80000287AD1424A13680133012B136009D1F2
:100FD800404BDA6C42F40052DA64DB6C03F40053E1
:100FE8000593059B3B4BDA6C42F00402DA64DA6C39
:100FF80002F004020692069ADA6C42F00102DA6400
:10100800DB6C1220032103F00103CDE90A010793E9
:1010180000240AA93048079B0C9402F0A5FA402244
:1010280003234FF090400AA9CDE90A230C9402F05B
:101038009BFA24B070BD4FF480324FF000430FA8E4
:101048000F92219302F004F9002839D1214B24484A
:10105800DA6C254D42F48042DA64DA6C02F480429C
:101068000892089ADA6C42F00202DA64DB6C03F048
:10107800020309934FF440420AA903230026CDE94D
:101088000A230C96099B02F06FFA184A2623C5E931
:10109800002380234FF400712B614FF40063C5E9EE
:1010A8000513C5E9026620224FF4005373E7FFF7E2
:1010B800CFFC78E7FFF7CCFC12E7FFF7C9FC81E724
:1010C800FFF7C6FCC2E700BF000100500005005052
:1010D8007C0000200010024000080048E0000020CA
:1010E8000004004808000240800000201C04024060
:1010F80010B51048104C002311210122C0E900430B
:10110800416107240221C0E90233C0E90624C0E98D
:101118000812C0E90A22C0E90C22C0E90E33038292
:10112800837402F0DBFD00B910BDBDE81040FFF785
:101138008FBC00BF84020020006C0040000000004B
:1011480010B504469CB00021542207A8CDE902112D
:10115800CDE904110691FFF73BF8234B22689A4228
:1011680001D01CB010BD4FF480524FF0007307A897
:101178000792159302F06CF850BB1C4B1C489A6DF3
:1011880042F000729A659A6D02F000720092009A1D
:10119800DA6C9FED117B42F00202DA64DB6C8DEDB4
:1011A800027B9FED0F7B03F00203019302A90B233F
:1011B8008DED047B0693019A02F0D6F900220121F5
:1011C800582002F011FD582002F04AFD1CB010BD55
:1011D800FFF73EFCD1E700BF180000000200000046
:1011E8000000000000000000006C004000100240F9
:1011F8000004004800B51948194A89B00023026064
:10120800D422CDE90433CDE90633CDE90133C0E971
:101218000133C0E903230393836105F079F990B999
:101228004FF480530D48049304A905F083FE90B948
:1012380000230A48019301A9039306F071F928B91C
:1012480009B05DF804FBFFF703FCE9E7FFF700FCD2
:1012580009B05DF804FBFFF7FBFBE9E7C0060020D7
:10126800000400400000000000B52B488DB00023AA
:10127800CDE90833CDE90A33CDE90133CDE90333AC
:10128800CDE90533C0E90133079303618023836106
:10129800224B03604FF0FF33C36005F039F918BBE8
:1012A8004FF480531C48089308A905F043FE48BB37
:1012B800194805F08BFB10BB00231748019301A9BF
:1012C800039306F02DF9B8B99FED117B0022002396
:1012D800114804A98DED047BCDE9062305F060FDD6
:1012E80028B90DB05DF804FBFFF7B2FBD8E7FFF7AC
:1012F800AFFB0DB05DF804FBFFF7AAFBE4E7FFF7CF
:10130800A7FBD9E7FFF7A4FBD2E700BFAFF3008044
:101318000000000001000000F0050020000C004063
:1013280000B51248124985B0A9220023C0E900126D
:10133800F922CDE90133C0E902320393836105F054
:10134800E7F850B900230948019301A9039306F06F
:10135800E7F828B905B05DF804FBFFF779FBF1E77A
:10136800FFF776FB05B05DF804FB00BF2005002001
:10137800001000400A480B4908B54FF6FF720023D9
:10138800C0E90013C0E90232C0E90433836105F003
:10139800BFF800B908BDBDE80840FFF759BB00BF5A
:1013A800500400200044014000B51D481D4A89B082
:1013B80000230260D422CDE90433CDE90633CDE918
:1013C8000033C0E90133C0E90323C0E905330293C0
:1013D80005F09EF8A8B94FF480531148049304A966
:1013E80005F0A8FDA8B99FED0C7B00230C480293DB
:1013F80069468DED007B06F093F828B909B05DF8D1
:1014080004FBFFF725FBE6E7FFF722FB09B05DF8D1
:1014180004FBFFF71DFBE6E70000000000000000EA
:10142800800300200050014070B503685B4A8EB00D
:1014380000249342CDE90844CDE90A440C942DD008
:10144800B3F1804F4DD0564A934233D0554A934218
:1014580070D0554A934200F08B80544A934235D05D
:10146800534A934224D1534B186E40F480101866A7
:101478001B6E03F480132246022107934E20079B1C
:1014880002F0B2FB4E2002F0EBFB224602214F2075
:1014980002F0AAFB4F2002F0E3FB09E0454B1A6E6D
:1014A80042F400621A661B6E03F400630093009B0B
:1014B8000EB070BD3F4B9A6D42F002029A659B6D6B
:1014C80003F002030293029B0EB070BD394B1A6EF3
:1014D80042F400321A661B6E03F400330693069B2F
:1014E800E6E703F50433344E9A6DF46042F00102E6
:1014F8009A659B6D3149F46103F0010301933A2326
:10150800C6E900131022802305464FF400710198A4
:10151800B26033614FF400624FF480533046C6E93D
:101528000512336202F0EAF9002834D1EE62B5629E
:101538000EB070BD1F4B22489A6D42F008029A65A2
:101548009A6D02F008020392039ADA6C42F00202E2
:10155800DA64DB6C03F002030493042402250223FB
:1015680008A9CDE90845049A0C9301F0FDFF9FE70F
:10157800104B986D40F0100098659B6D03F01003B8
:101588000593224602213620059B02F02DFB3620CA
:1015980002F066FB8CE7FFF75BFAC7E7002C014017
:1015A80000040040000C00400010004000440140CE
:1015B80000500140001002401C03002008040240B3
:1015C800000400480000000000B50268244989B002
:1015D80000238A42CDE90233CDE90433069305D0CE
:1015E800B2F1804F1DD009B05DF804FB03F18043D0
:1015F80003F504339FED167BDA6C42F00102DA64DE
:10160800DB6C03F00103009302A906234FF090401E
:101618008DED027B009A069301F0A6FF09B05DF8F4
:1016280004FB104B1048DA6C42F00202DA64DB6CFF
:101638009FED097B03F00203019302A901238DEDBD
:10164800027B019A069301F08FFF09B05DF804FB55
:10165800001000000200000000040000020000006A
:10166800002C014000100240000400480000000067
:1016780010B500249CB0342221460FA8CDE90544BA
:10168800CDE90144CDE90944CDE90B44CDE90D4448
:101698000494009408940794FEF79AFD3A483B4A4C
:1016A80084601023C0E9002340F6C313C36080237D
:1016B800C0E90444836104F02BFF002848D14FF4AB
:1016C80080533148049304A905F034FC002852D112
:1016D8002D4805F089F800284AD100230022CDE9D9
:1016E8000023294800236946029305F019FF0028C2
:1016F8003BD19FED237B6022002308924FF40074B6
:1017080021480B9308A904228DED0C7BCDE9093300
:101718000E9405F0AFFD28BB00234FF400544FF0A2
:10172800007219481B930FA9CDE90F33CDE9113386
:10173800CDE91334CDE91533CDE91732CDE91933A5
:1017480005F048FF38B91048FFF73EFF1CB010BD40
:10175800FFF77EF9B3E7FFF77BF90B48FFF734FF94
:101768001CB010BDFFF774F9D6E7FFF771F9C0E7B1
:10177800FFF76EF9B1E7FFF76BF9A9E7AFF3008060
:10178800000000000000000058080020002C014064
:1017980000B52F4891B00023CDE90433CDE90633D5
:1017A800CDE90133CDE90833CDE90A33CDE90C336E
:1017B800C0E9013303930E93036183614FF08043C3
:1017C8000360D423C36004F0A3FE30BB4FF48053FE
:1017D8001F48049304A905F0ADFB78BB1C4805F02D
:1017E80003F840BB00231A48019301A9039305F0AD
:1017F80097FEE8B99FED147B002315480A93082249
:1018080008A98DED087B0C9305F034FD40B910480C
:10181800FFF7DAFE11B05DF804FBFFF719F9D5E719
:10182800FFF716F90A48FFF7CFFE11B05DF804FB81
:10183800FFF70EF9DEE7FFF70BF9D3E7FFF708F933
:10184800CCE700BFAFF3008060000000000000009C
:101858008C070020FEE700BFFEE700BFFEE700BFE1
:10186800FEE700BFFEE700BF704700BF704700BF3C
:10187800704700BF01F014B908B5044805F098F99D
:10188800BDE80840024807F013BA00BF2005002051
:101898007C0C0020014805F08BB900BF80030020B4
:1018A800014805F085B900BF8003002000B5104B42
:1018B8001A6E42F0010283B01A661A6E02F0010233
:1018C8000092009A9A6D42F080529A659B6D03F0DF
:1018D800805301932020019B01F006F901F018F9CB
:1018E800002001F00BF903B05DF804EB02F062B9D7
:1018F8000010024030B583B00023019300285CD06B
:10190800C56D0446002D00F0C180226893689B00D5
:1019180005D5936823F0204323F03F039360936831
:10192800DD0019D46F4B70481B6891689B09A0FBB8
:10193800030321F010419B0921F03F0101335B00B3
:1019480041F0805191600193019B2BB1019B013BB8
:101958000193019B002BF9D19368D80030D4E36D33
:1019680043F01003E365236E012003432366936865
:1019780013F0040FE36D1CD1D9061AD4E36D23F4D8
:10198800817343F00203E3659368DB0729D4B2F15E
:10199800A04F17D0554B9A4214D05549554B8968DA
:1019A8009B680B43544989680B43D90719D4534999
:1019B80011E0E36D43F01003E365012003B030BD8F
:1019C8000020D4E7494B4FF0A04189689B680B433E
:1019D800DD0706D44A498B68656823F47C132B43DA
:1019E8008B60E568E36B94F824102B43A5682B43C0
:1019F800657F012943EA453343EA01434CD0E16A54
:101A080021B1256B01F4787129430B43D5683D4911
:101A180029401943D1601369616B23F040630B437C
:101A2800136193681B0722D4D16894F83830257F56
:101A380021F480415B0021F0020143EA85330B4326
:101A48002169D3601369002933D043F480331361CB
:101A5800D2F8C0306FF30D030B43C2F8C03094F8CE
:101A68004030012B2FD0136923F001031361636900
:101A7800012B16D0136B23F00F031363E36D23F0D0
:101A8800030343F00103E36503B030BDFFF702FA37
:101A9800256684F8585038E7A16A013943EA41437A
:101AA800ADE7116B236A21F00F01013B0B43136370
:101AB800E4E723F480331361D2F8C0306FF30D03E9
:101AC800C2F8C030CBE71169636CA56C6FF38A016B
:101AD8002B430B43E16C0B43216D0B4343F0010394
:101AE8001361C4E708000020632D3E050001005083
:101AF8000004005000050050000600500007005088
:101B0800000300500740F0FF704700BF704700BF58
:101B180008B5806AFFF7FAFF08BD00BF704700BF2D
:101B2800836ADA6D12F0500F10B5DA6D1DD119689D
:101B380042F40072DA650A6812F0080FCA681BD00E
:101B480012F4406F0DD1CA6894040AD4DA6D22F4F5
:101B58008072DA65DA6DD10403D4DA6D42F00102DD
:101B6800DA651846FFF7D0FF10BDD2060AD45B6DC0
:101B7800BDE810405B6B18479007E7D51846FFF79C
:101B8800C3FFF1E71846FFF7C9FF10BD806A08B523
:101B9800C36D43F04003C365036E43F0040303665B
:101BA800FFF7BCFF08BD00BF2DE9F04190F85820B1
:101BB80082B00346012A4FF00000019000F01F8117
:101BC8001A68012083F858009468640767D4486845
:101BD8004FEA901E00F01F0C0EF00C0E086802F180
:101BE8003004C0F3846054F80E501F2600FA0CF03D
:101BF80006FA0CFC25EA0C0C40EA0C0044F80E002E
:101C08009068470755D5906808689468E50712D426
:101C1800CE68BD4CD2F8B05006F01807FC40C0F3AF
:101C28001207044025EA07052C43C2F8B040B74C18
:101C3800A64200F09180B64908422ED0B2F1A04FDA
:101C480000F0DB80B34DB449B44CAA4218BF21461A
:101C5800B34C8968A04201F0E07500F0D480B14C23
:101C6800A04200F0D080B04CA04200F0F580AF4C0C
:101C7800A04212D1490210D4A6498A420DD0A648E2
:101C880001F5C061B2F1A04F08BF01468A6822F091
:101C9800E0722A4342F480028A60002003E0DA6D91
:101CA80042F02002DA65002283F8582002B0BDE82D
:101CB800F081946808682607A7D48D68C0F3045695
:101CC8000724C00DB440B5F1004F00F004006FEADE
:101CD800040400F0358102F11407B5403E58344041
:101CE8002C433C50506920F000405061D1E9046415
:101CF8000868D568042E074600F0D980C5F3C105E9
:101D08006D0000F0F84704FA05F002F16004884D10
:101D180054F826C00CEA05053D43284340F000402E
:101D280044F826000D698E6954F8250020F080706B
:101D3800304344F825000E690D7F54F82600A5F1BC
:101D48000105B5FA85F56D0920F0007040EA456097
:101D580044F82600086858E7002F00F0928090FAAF
:101D6800A0F4002C00F0F680B4FA84F4013404F0F6
:101D78001F04092C40F2EE8090FAA0F4002C00F029
:101D88009181B4FA84F40134A40604F0F84490FA7A
:101D9800A0F5002D00F09D81B5FA85F5013505F017
:101DA8001F05012606FA05F52C4390FAA0F0002835
:101DB80000F08D81B0FA80F0451C05F01F05032066
:101DC8006FF01D0610FB0560000540F00070204311
:101DD800C50D8C6805F0040502F11406C0F3045023
:101DE80004FA00F74FF0070C74590CFA00F024EAD3
:101DF80000003843705108681DE7474928E702206A
:101E080002B0BDE8F0810C023FF547AFB2F1A04F38
:101E18004BD048498A427FF440AF4048464A474C35
:101E2800126881689209A4FB0242920921F0E071CC
:101E38000132294302EB4202920041F40001816021
:101E48000192019A002A3FF428AF019A013A0192BF
:101E5800019A002AF9D120E7C8013FF51EAFB2F177
:101E6800A04F00F01D812B4C2B492C48A24218BFD3
:101E780001468A6822F0E0722A4342F080728A6042
:101E88000BE7800E013000F01F050124800600F0EA
:101E9800F840AC40092D44EA000405EB45007ED922
:101EA8001E38000540F0007091E71B48B6E7146E35
:101EB800146EC0F31205C4F38464002D71D1C0F30D
:101EC8008460844200F0A580546E556E02F160046F
:101ED800C5F3846502F1640E854200F0C580A568EB
:101EE800A56804F1080CC5F38465854200F0A68056
:101EF800E568E56804F10C06C5F38464A04200F0C7
:101F0800C980384681E600BFFFFF070000007F4018
:101F18000000088000010050000300500007005036
:101F2800000021C31000C090000052C7000084CBFD
:101F380000F0FF030006005008000020632D3E0556
:101F480002F1140635582C403450506940F00040D6
:101F58005061CBE690FAA0F4002C00F0AB80B4FA04
:101F680084F40134A40604F0F84490FAA0F5002D96
:101F780000F09E80B5FA85F5013505F01F050126AC
:101F880006FA05F52C4390FAA0F0002800F08D80A1
:101F9800B0FA80F0013000F01F0000EB40000005AF
:101FA80015E790FAA0F51DB1B5FA85F5AC4230D029
:101FB800546E556E02F16004C5F3846502F1640E37
:101FC80097FAA7F604F1080CE046002E7AD0B6FA84
:101FD80086F6AE424AD0DCF80050DCF80050C5F373
:101FE800846597FAA7FE04F10C06B046BEF1000F0F
:101FF80063D0BEFA8EFEAE4522D034683468C4F38E
:10200800846497FAA7F5002D3FF4FFADB5FA85F083
:1020180074E7106E144620F0004044F8600F0F6813
:10202800506E556EC7F3120602F1640EC5F384654F
:102038003846002EC4D1C7F384604DE704F10C087C
:10204800DCF8000020F00040CCF800000F68E068E1
:10205800E468C7F312054646C4F384643846002D85
:10206800CFD1C7F3846049E704F10808DEF800001F
:1020780020F00040CEF800000F68A068A568C7F3FC
:102088001206C446C5F384653846002EA9D1C7F3A5
:1020980084602AE7306820F0004030600868B4E5C2
:1020A8000D49E6E64FF0806471E64FF440108EE685
:1020B800022567E74FF0806457E7E568E468C4F3F2
:1020C80084649EE7A568A568C5F3846589E7034825
:1020D8007DE6022568E600BF00030050000050FEC0
:1020E80030B590F858304C68012B00F0B480026885
:1020F800012380F85830936813F0040F84469368DE
:10210800086833D0B34B9842D1E904415BD0D36817
:1021180003F01803182B63D0D368C3F3C103C3F1CA
:1021280002035B0003F01E0324FA03FED36803F0E6
:102138001803182B5BD0D368C3F3C103C3F10203A0
:102148005B0003F01E0321FA03F3800C00F00C007F
:10215800203243EA0E43115801F0F0214FF0000EEF
:102168000B4313508CF858E0704630BD1B07C9D498
:10217800984B98423DD0B4F1A07F00F0D1806CD844
:10218800B4F5400F00F0CC80B4F1807F02D0B4F5F4
:10219800000F68D140F30003C0F3015E03F024038D
:1021A8009E4402F10C0420F0024554F82E3025F428
:1021B800601520F07E4020F4F00023EA0503034375
:1021C80044F82E3062E0D368C3F3C1035B0004FA1D
:1021D80003FED368C3F3C1035B0001FA03F3B4E75A
:1021E800D36803F01803182B4FEA840EA3D18B0091
:1021F800ABE7B4F1A07F00F0B6805ED8B4F5400F2D
:1022080000F0CE80B4F1807F00F0C180B4F5000FFB
:1022180040F0B680D36823F0FB4323F4800343F4F3
:102228000003D360136A886923F4E043034313620D
:10223800DCF85C30802023F48033CCF85C3010600C
:102248000B7B0868012B53680CBF43F0800323F015
:102258008003536056E7022030BDB4F1C07F99D0A7
:10226800B4F1E07F5CD040F30004C0F3015304F004
:102278002404234402F10C0520F0024455F82300FD
:1022880024F4601420EA040045F823000868524B3F
:10229800984230D0DCF85C3023F48023CCF85C30F2
:1022A8004FF4007313600B7B012B53680CBF43F48E
:1022B800007323F40073536024E7B4F1C07F49D05E
:1022C800B4F1E07F5CD1D0688B6820F0FB4003F06C
:1022D800F84320F48000034343F0E073D360A1E7A0
:1022E800002D6AD1C3F3846301209840D2F8A0304E
:1022F8000343C2F8A030DCF85C304FF4807023F45C
:102308000033CCF85C3010600B7B012B53680CBF9A
:10231800034323F480735360D1E904412E48F6E661
:102328002D4C8B68A042C3F31205D9D04DB9C3F325
:10233800846301249C40D2F8A4302343C2F8A4301B
:10234800A8E793FAA3F3002B3FD0B3FA83F3012451
:102358009C40F0E7D36823F0FB4323F4800343F069
:10236800C073D3605EE7D0688B6820F0FB4003F051
:10237800F84320F48000034343F0A073D36051E78F
:10238800D36823F0FB4323F48003D3604AE7D36880
:1023980023F0FB4323F4800343F08073D36041E7C9
:1023A800D0688B6820F0FB4003F0F84320F48000ED
:1023B800034343F44003D36034E793FAA3F333B100
:1023C800B3FA83F30120984090E70124B3E7012092
:1023D8008CE700BF0000C07DFFFF170070B582B01A
:1023E8000022036801929A68D20734D499682D4A6A
:1023F8001142044632D19A6822F0004222F03F028C
:1024080042F00102B3F1A04F9A6048D02648274A0B
:102418002749834218BF0A4693681B0229D400F053
:102428004BFB23681A68D607054614D4214E9A68D0
:10243800D00704D49A68324042F001029A6000F052
:102448003BFB431B022B236802D91A68D10705D529
:102458001A68D207EBD5002002B070BDE36D43F0D7
:102468001003E365236E012043F00103236602B0E5
:1024780070BD114B114A1B689B09A2FB03239B09E2
:10248800013303EB43039B000193019B002BC6D050
:10249800019B013B0193019B002BF9D1BFE7034A44
:1024A800BAE700BF3F000080000100500003005061
:1024B80000070050C0FFFF7F08000020632D3E0585
:1024C8000368B3F1A04F70B5044652D039483A4A70
:1024D8003A49834218BF0A4696689D6815F0040574
:1024E80045D194F85830012B41D0012384F8583055
:1024F8002046FFF773FF00283DD1E36D226823F4DF
:10250800706323F0010343F48073E365294B9A4217
:1025180006F01F0644D003F580639A4245D0114661
:10252800E36D23F48013E365E36D13F480531CBF5C
:10253800236E23F0060323661C2313608A424FF0A0
:10254800000384F8583019D040F22123F340DD0706
:1025580014D4E36D43F48013E365CB689B0105D580
:10256800E36D23F4405343F48053E36570BD0220C8
:1025780070BD114AB0E784F8585070BDD36899010E
:1025880005D5E36D23F4405343F48053E365936822
:1025980023F0004323F03F0343F00403936070BD2E
:1025A8004FF0A041002EBFD1BAE70549002EBBD19C
:1025B800B6E700BF000100500003005000070050BC
:1025C800000400502DE9F0410568B5F1A04F04461C
:1025D8000E46174667D0394A39483A4B954218BFD4
:1025E80018468268AB685B0715D494F85830012BFD
:1025F80011D0354B01209D4202F01F0884F8580085
:102608000CD040F2212323FA08F3034006D184F8C2
:102618005830BDE8F0810220BDE8F0812046FFF780
:10262800DDFE002841D1E36D216823F4706323F0B7
:10263800010343F48073E365204B99423AD003F5D4
:102648008063994236D0E36D23F48013E365E36D2C
:10265800606D1E4D13F480531CBF236E23F00603D8
:102668002366C5621A4D05631A4D45631C250D6026
:10267800002584F858504D6845F010054D60CD6828
:1026880045F001053B463246CD60403101F0C8F9BE
:102698002268936823F0004323F03F0343F00403C8
:1026A8009360BDE8F08106489BE7002384F8583022
:1026B800BDE8F081B8F1000FC9D1C4E700010050AE
:1026C800000300500007005000060050291B0008B6
:1026D800191B0008951B000838B503689A68950708
:1026E80002D59B68002038BD9A68D407FAD59A6845
:1026F80002F00D02012A044609D0E36D43F01003ED
:10270800E365236E43F001032366012038BD9A6810
:1027180022F0004222F03F02032142F002029A60B6
:10272800196000F0C9F923689B68D907054603D4E6
:10273800D8E79B68DB07D5D500F0BEF9401B022817
:102748002368F6D99A68D207F3D5D6E730B590F85A
:10275800583083B00022012B01923FD0012380F82A
:10276800583004460D46FFF7B7FFE36DE8B923F488
:10277800885323F00203226843F00203E365936859
:1027880023F0404305F0804123F03F030B4343F01F
:102798000043936093681349002B0EDBE36D23F02D
:1027A800030343F00103E36502E043F01003E3652C
:1027B800002384F8583003B030BD019B01330193E6
:1027C800019B8B42E6D9E36D23F01203002243F00C
:1027D8001003E36584F858200120ECE7022003B0D9
:1027E80030BD00BF01DE04002DE9F0410668B56880
:1027F80015F004059CB01AD190F85830012B044606
:1028080015D00120B6F1A04F18958846174619959E
:1028180084F858000FD02C4B9E4218D0E36D84F8F2
:10282800585043F02003E3651CB0BDE8F081022056
:102838001CB0BDE8F081254B01932046FFF7CEFD83
:1028480038B1002384F858301CB0BDE8F081204B23
:10285800F2E701A8FFF7C2FD03460028F1D1E26DB7
:10286800606D256822F4706222F0010242F48072E1
:10287800E2652366174BC362174B0363B5F1A04F9C
:10288800164B43631DD0114A1549164B954218BF84
:1028980019461C262E60002684F858606E6846F09B
:1028A80010063B4642460C316E6001F0B9F82268CA
:1028B800936823F0004323F03F0343F0040393603D
:1028C800B6E70749E5E700BF0004005000010050E3
:1028D80000050050291B0008191B0008951B00085B
:1028E800000300500007005090F85820012A4CD0EF
:1028F80070B402689DB0034600240120B2F1A04FD5
:10290800189483F8580019940BD0444DAA423AD031
:10291800DA6D83F8584042F02002DA651DB070BCC9
:1029280070473F48806840070BD59268DA6D42F0DF
:1029380020020120DA65002283F858201DB070BCFF
:10294800704790684407F1D4B2F1A04F0D681ED0CB
:10295800344A002D31D191683348304C21F460411C
:102968009160A468816800F580708068C00708D409
:102978002143CD0705D4916821F4716121F00F013D
:1029880091600020D7E72848CCE702207047002D47
:1029980033D0264C4E68A06893F838C020F46040C5
:1029A800304340EA4C30A0609268D60733D41C4AC2
:1029B8009268D607E5D4224615E090684C6820F462
:1029C8006040204393F8384040EA44309060134810
:1029D800174C866800F580708068A468E407D0D436
:1029E8003043C007CDD49068896820F471602943CA
:1029F80020F00F0001439160C3E70C49886820F478
:102A0800604088609268D20705D4054A9268D60764
:102A1800B7D40A46AFE7024A9268B2E7000400500A
:102A2800000100500007005000050050000300504E
:102A38000006005038B50F4B1B680BB9012038BD94
:102A48000D494FF47A720546B2FBF3F30868B0FB00
:102A5800F3F001F013F904460028EFD10F2DEDD85B
:102A6800024629464FF0FF3001F0BEF8034B2046DE
:102A78001D6038BD00000020080000200400002070
:102A880010B5032001F09EF80F20FFF7D3FF10B117
:102A98000124204610BD0446FEF708FF204610BD5D
:102AA800034A0449136809680B441360704700BF60
:102AB8002409002000000020014B1868704700BF5F
:102AC8002409002038B50446FFF7F6FF631C0546C5
:102AD80002D0044B1B681C44FFF7EEFF401BA042CA
:102AE800FAD338BD00000020034A136B23F03003EB
:102AF80003431363704700BF00000140034A136B90
:102B080023F0020303431363704700BF0000014032
:102B180038B50A4C236B43F001032363FFF7CCFF5E
:102B2800054604E0FFF7C8FF401B0A2804D8236BBA
:102B38001B07F7D5002038BD032038BD0000014031
:102B4800002800F0BD812DE9F0410368D90782B063
:102B5800044612D5A6498A68C96802F00C020C2AF4
:102B680000F0D080082A40F0D280A14A126892036F
:102B780003D56268002A00F037819A0722D59C4A5B
:102B88009368D26803F00C030C2B00F0F880042B38
:102B980040F0FA80964B1B685B0503D5E368002B71
:102BA80000F02281924A20695368924923F0FE433B
:102BB80043EA006353600868FFF73CFF002840F0D1
:102BC800138123681A0719D56369894D002B00F012
:102BD800C280D5F8943043F00103C5F89430FFF76C
:102BE8006BFF064605E0FFF767FF801B022800F22F
:102BF8001781D5F894309B07F5D523685D0741D533
:102C08007B4B9A6DD00000F10F819A6D42F0805293
:102C18009A659B6D03F080530193019B0125764EC5
:102C28003368D90540F12E81A368012B00F0FE809E
:102C3800052B00F084816E4ED6F8902022F0010218
:102C4800C6F89020D6F8902022F00402C6F890200A
:102C5800002B40F0F280FFF72FFF41F2883807463B
:102C680005E0FFF729FFC01B404500F2D980D6F8E0
:102C780090309907F5D425B15D4A936D23F08053C0
:102C8800936523689A0618D5A369594D002B00F05F
:102C9800E580D5F8983043F00103C5F89830FFF780
:102CA8000BFF064605E0FFF707FF801B022800F22E
:102CB800B780D5F898309B07F5D5E369F3B14C4D4B
:102CC800AA6802F00C020C2A00F04781022B2B683C
:102CD80023F080732B6000F0F580FFF7EDFE0446CB
:102CE80005E0FFF7E9FE001B022800F299802B6837
:102CF8009B01F6D4EA68414B1340EB60002002B018
:102D0800BDE8F08101F0030103293FF42EAF6368A9
:102D1800B3F5803F55D0B3F5A02F00F0C480344DF3
:102D28002A6822F480322A602A6822F480222A60E3
:102D3800002B4BD1FFF7C0FE064604E0FFF7BCFEB0
:102D4800801B64286CD82B689903F7D423689A07EA
:102D58007FF538AF13E7D5F8943023F00103C5F8B1
:102D68009430FFF7A9FE064604E0FFF7A5FE801B96
:102D7800022855D8D5F894309F07F6D43DE702F0DD
:102D88000302022A3FF406AFE368194D002B37D03F
:102D98002B6843F480732B60FFF78EFE064604E031
:102DA800FFF78AFE801B02283AD82B685F05F7D503
:102DB8006B68226923F0FE4343EA02636B60236871
:102DC80000E70B4A136843F480331360FFF774FE7F
:102DD800074E054604E0FFF76FFE401B64281FD826
:102DE80033689F03F7D5B1E7012002B0BDE8F08151
:102DF800001002400400002000700040FCFFEEFEBE
:102E08002B6823F480732B60FFF756FE06462B6869
:102E180059057FF5D6AEFFF74FFE801B0228F6D97D
:102E2800032002B0BDE8F0810025F8E6654AD2F833
:102E3800903043F00103C2F89030FFF73DFE614F38
:102E4800064641F2883804E0FFF736FE801B40450D
:102E5800E6D8D7F890309B07F6D50CE7D5F8983028
:102E680023F00103C5F89830FFF726FE064604E074
:102E7800FFF722FE801B0228D2D8D5F898309F078A
:102E8800F6D41AE7336843F480733360FFF714FE0F
:102E980007463368DA053FF5C7AEFFF70DFEC01BDE
:102EA8000228F6D9BCE703F18043A3F53C331A683E
:102EB80042F480221A601A6842F480321A6085E768
:102EC80001207047FFF7F8FD064604E0FFF7F4FD20
:102ED800801B0228A4D82B689901F7D4E9683A4BDB
:102EE800226A606A0B401343D4E90A1243EA0123B9
:102EF80043EAC263D4E90C120138490843EA0013D3
:102F08000139520843EA4153013A43EA4263EB600C
:102F18002B6843F080732B60EB6843F08073EB60A1
:102F2800FFF7CAFD274D044605E0FFF7C5FD001B66
:102F380002283FF675AF2B689A01F6D5DEE6214BDD
:102F4800D3F8902042F00402C3F89020D3F89020E0
:102F580042F00102C3F890206FE7012B3FF444AF21
:102F6800EB68226A03F0030191427FF43DAF616A86
:102F780003F0F0020139B2EB011F7FF435AFA16A0B
:102F880003F4FE42B2EB012F7FF42EAFE16A03F0A7
:102F98007842B2EBC16F7FF427AF226B520803F47B
:102FA800C001013AB1EB425F7FF41EAF626B520879
:102FB80003F0C063013AB3EB426F14BF0120002055
:102FC8009DE600BF001002400C809F01184B9A68D4
:102FD80002F00C02042A26D09A6802F00C02082A91
:102FE80023D09A6802F00C020C2A01D00020704706
:102FF800D968DA68D86801F003010329C2F303121B
:10300800C0F306200CBF0B4B0B4B0132B3FBF2F3A2
:1030180003FB00F0064BDB68C3F3416301335B003D
:10302800B0FBF3F07047044870470248704700BF90
:103038000010024040787D010024F400002800F0D0
:10304800EE80784A2DE9F843136803F00F038B42AA
:103058000D4604460CD2136823F00F030B4313608C
:10306800136803F00F038B4202D00120BDE8F883F8
:103078002368DF0769D56768032F00F0A0806A4BD3
:10308800022F1B6800F097805B05EED5FFF79EFFC7
:10309800664B984240F2C080634A936823F0F0037D
:1030A80043F0800393604FF080095F4EB36823F0CC
:1030B80003033B43B360FFF7FFFC41F28838074640
:1030C80004E0FFF7F9FCC01B404571D8B36862689B
:1030D80003F00C03B3EB820FF3D123689F0736D4B8
:1030E800B9F1000F03D0B36823F0F003B3604D4E7D
:1030F800336803F00F03AB4246D823685A0706D556
:103108004949E0688A6822F4E06202438A601B0742
:1031180007D5454A2169936823F4605343EAC103FC
:103128009360FFF753FF404A414C92684149C2F30C
:1031380003120346A25C404802F01F02D3400B6012
:103148000068BDE8F843FFF775BC9E07CFD5580760
:1031580004D535498A6842F4E0628A60190706D5C1
:10316800314A936823F47C5343F4E06393602E4A16
:10317800A16893682B4E23F0F0030B4393603368E8
:1031880003F00F03AB42B8D9336823F00F032B4386
:103198003360FFF791FC41F288380746336803F043
:1031A8000F03AB42A9D0FFF787FCC01B4045F5D9F8
:1031B8000320BDE8F8839A033FF568AF55E71A4A3C
:1031C800116888017FF551AFD068D168D268174E71
:1031D80000F003000328C1F303110CBF1748184877
:1031E8000131B0FBF1F11048C2F3062201FB02F2F3
:1031F800C168C1F3416101314900B2FBF1F2B24249
:103208000AD9826812F0F00F3FF446AF990703D548
:10321800A368002B3FF440AF4FF0000945E70120B9
:10322800704700BF002002400010024000B4C404F0
:10323800C4AB0008080000200400002040787D018D
:103248000024F400014B1868704700BF08000020F4
:103258002DE9F0410368044613F4002082B052D0EF
:10326800AC4B9A6DD50040F13A810027AA4D2B68E6
:1032780043F480732B60FFF71FFC064605E0FFF759
:103288001BFC831B022B00F235812B68D805F6D571
:10329800A04D226DD5F8903013F4407326D0934298
:1032A80024D0D5F89010D5F8903043F48033C5F881
:1032B8009030D5F8903023F48033C5F8903021F45D
:1032C8004073C907C5F8903010D5FFF7F5FB41F2F8
:1032D8008838064605E0FFF7EFFB801B404500F203
:1032E8000981D5F890309B07F5D5226D8949D1F829
:1032F800903023F440731343C1F8903023680020C2
:10330800002F40F0FC80DD0708D582496568D1F8B8
:10331800882022F003022A43C1F88820990708D59B
:103328007C49A568D1F8882022F00C022A43C1F80C
:1033380088205A0708D57749E568D1F8882022F00F
:1033480030022A43C1F888201F0708D5714925692A
:10335800D1F8882022F0C0022A43C1F88820DE066E
:1033680008D56C496569D1F8882022F440722A434F
:10337800C1F888209D0608D56649A569D1F8882036
:1033880022F440622A43C1F88820590608D56149C9
:10339800E569D1F8882022F440522A43C1F88820F0
:1033A8001A0608D55B49256AD1F8882022F44042DC
:1033B8002A43C1F88820DF0508D55649656AD1F83F
:1033C800882022F440322A43C1F888209E0308D579
:1033D8005049A56AD1F89C2022F003022A43C1F87B
:1033E8009C209D0508D54B49E56AD1F8882022F430
:1033F80040222A43C1F8882059050BD54549256B39
:10340800D1F8882022F440122A43B5F5801FC1F86C
:1034180088207AD01A050BD53E49656BD1F88820EB
:1034280022F440022A43B5F5800FC1F8882075D0F0
:10343800DF040BD53749A56BD1F8882022F04072FC
:103448002A43B5F1807FC1F888206CD09E040BD543
:103458003049E56BD1F8882022F040622A43B5F163
:10346800006FC1F8882063D05D040BD52949256C0D
:10347800D1F8882022F040622A43B5F1006FC1F8E4
:1034880088205AD019040BD52249656CD1F88820B8
:1034980022F040522A43B5F1805FC1F8882051D00C
:1034A800DA030BD51B49A56CD1F8882022F04042DD
:1034B8002A43B5F1804FC1F8882048D05B030BD56B
:1034C800144AE16CD2F89C3023F440130B43B1F555
:1034D800001FC2F89C303FD002B0BDE8F0819A6D61
:1034E80042F080529A659B6D03F080530193019BD3
:1034F8000127BBE623680320002F3FF404AF0549EA
:103508008A6D22F080528A65FDE6CA6842F480120C
:10351800CA607FE70010024000700040CA6842F4A9
:103528008012CA6084E7CA6842F48012CA608DE7D4
:10353800CA6842F48012CA6096E7CA6842F48012E8
:10354800CA609FE7CA6842F48032CA60A8E7CA68BE
:1035580042F48032CA60B1E7D36843F48013D36081
:1035680002B0BDE8F08100BF0B68002B00F0988125
:103578002DE9F04FB0F1904F85B04FF000024FF0B9
:10358800010B00F00D81DFF84CE30093009B0BFA70
:1035980002FC1CEA030A77D04D6805F003075400C3
:1035A800032307F1FF3803FA04F6B8F1010F6FEAB5
:1035B800060640F21981032F40F0798107FA04F4D6
:1035C80007683E40344315F4403F04605CD0BE4E6B
:1035D800346E44F001043466346E04F0010403943C
:1035E800039C22F0030404F1804402F003070F2334
:1035F80004F58034BF0003FA07FCB44BA668984270
:1036080026EA0C0600F04081B14B984200F02D816B
:10361800DFF8C4C2604500F03D81DFF8C0C26045F4
:1036280000F03F81DFF8B8C260450CBF4FF0050CD1
:103638004FF0060C0CFA07F73E43A660DEF8084088
:103648006FEA0A06EF0254BF34404AEA0404CEF88F
:103658000840DEF80C40AB0254BF34404AEA040488
:10366800CEF80C40DEF80440AF0354BF34404AEAB9
:103678000404CEF80440DEF80040EB0354BF3440A5
:103688004AEA0404CEF80040009B013233FA02F4FF
:103698007FF47CAF05B0BDE8F08FD0F80890CE6815
:1036A8000AEA090906FA07F848EA0908C0F808808A
:1036B800D0F8048028EA0E08C5F3001E0EFA02FEB0
:1036C8004EEA080EC0F804E0D0F80C808E680AEACA
:1036D800080806FA07FE4EEA080E022CC0F80CE0AD
:1036E80019D14FEAD20E0E694FEA8E0E02F0070882
:1036F8000EF1904E4FEA880806FA08F6DEF8209098
:1037080000960F2606FA08F8009E29EA080946EAF4
:103718000908CEF82080BC40076807EA0A073C433E
:1037280015F4403F046036D0674F3C6E44F0010406
:103738003C663C6E04F001040394039C22F00304ED
:1037480004F1804404F5803402F00307D4F808E05B
:103758000F26BF0006FA07F72EEA0707A7605D4C99
:10376800EE02A4686FEA0C077CD43C40594EB46062
:10377800F468AE0200F185803C40564EF4607468EF
:10378800AE037BD43C40534EED037460346872D46E
:103798003C40504D2C60013233FA02F43FF47AAFCA
:1037A8000BFA02FE13EA0E0CF5D04D6857000326FB
:1037B80006FA07F805F003046FEA080A04F1FF386F
:1037C800B8F1010F7FF669AF032CA4D04FF09048F1
:1037D8008E68D8F80C9006FA07FE0AEA09094EEA3C
:1037E800090EC8F80CE096E7D0F80890CB6809EA0B
:1037F800060903FA04F848EA0908C0F80880D0F86E
:1038080004808B6828EA0C08C5F3001C0CFA02FC3B
:103818004CEA080CC0F804C0D0F80C8003FA04FC89
:1038280008EA06084CEA080C022FC0F80CC07FF41E
:10383800C5AE0B694FEAD20802F0070C00EB880806
:103848004FEA8C0C03FA0CF3D8F8209001930F235D
:1038580003FA0CFC019B29EA0C0943EA090CC8F895
:1038680020C0ABE644EA0C0480E74FF0020C0CFAE7
:1038780007F73E43E1E64CEA04048AE744EA0C040D
:1038880081E74CEA040478E74FF0010C0CFA07F7DB
:103898003E43D2E64FF0030C0CFA07F73E43CCE662
:1038A80070474FF0040C0CFA07F73E43C5E6D0F812
:1038B8000C808B6808EA060803FA04FC4CEA080C3A
:1038C800C0F80CC07AE600BF0010024000040048AF
:1038D8000008004800040140000C0048001000489F
:1038E800001400480369194214BF012000207047E2
:1038F8000AB1816170478162704700BF002876D0A5
:10390800F0B43C4A0468944203465CD93A493B4ABD
:103918003B482144A2FB01210909890002229D6834
:1039280083F82520DA68354E364FC3E91001186947
:103938002A4302435869024398690243D8690243FB
:10394800E0B20838A6FB0060266826F4FF4C1E6A21
:103958002CF0700C324342EA0C022260254E2A4AAF
:10396800C0F30410B44298BF3A4606F279460124DF
:1039780004FA00F0DE64B5F5804F01EB0206186525
:103988009E644FEA910127D05E68F5B2013E032E8E
:1039980042F82150C7F8840024D81C4A1C482A44FD
:1039A8009200013DAC400021C3E91520DC6511609F
:1039B800184A546400200122D86383F8240083F84D
:1039C8002520F0BC704714490C4A14482144A2FB36
:1039D800012109098900A1E700245C6042F821401F
:1039E800C7F884000022C3E91522DA65E2E701205E
:1039F800704700BF07040240F8FBFDBFCDCCCCCC1C
:103A08000004024000080240200802403F820010E3
:103A18004009024000090240F8FFFDBF00000240D3
:103A2800F0B490F82440012C09D0012480F82440F7
:103A380090F82540012C05D0002380F8243002207E
:103A4800F0BC7047022480F825400024C463046851
:103A5800C66C256825F001052560D0E914757760E6
:103A680015B1D0E916677760466C076C06F01F0C35
:103A7800012606FA0CF67E6063608368102B036BE0
:103A88000BBFA260A160E160E260BBB1236843F0B4
:103A98000E032360836C1A68D20303D51A6842F4B4
:103AA80080721A601DB12B6843F480732B60236801
:103AB80043F0010300202360F0BC7047236823F023
:103AC80004032360236843F00A032360E2E700BF8E
:103AD800354A136860B903F4C063B3F5806FD2F850
:103AE80080301BD023F48073C2F8803000207047E8
:103AF800B0F5007F06D023F4C06343F480631360FD
:103B08000020704703F4C063B3F5806FD2F88030AB
:103B180029D043F48073C2F88030F1E723F480732E
:103B2800C2F8803013682148214923F4C06343F464
:103B3800007313600368322000FB03F35069A1FB94
:103B480003139B0C400503F1010306D500E023B1E4
:103B58005169490503F1FF33F9D4134B5B695B05E0
:103B6800CED50320704743F48073C2F880301368C1
:103B78000E480F4923F4C06343F4007313600368CD
:103B8800322000FB03F35069A1FB03139B0C400593
:103B980003F10103E1D501E0002BDED051694905AD
:103BA80003F1FF33D9D5F7E7007000400800002083
:103BB80083DE1B43024A936843F480439360704753
:103BC800007000400749CA6803024FF6FF0003F47B
:103BD800E0630240134343F0BF6343F40033CB6018
:103BE800704700BF00ED00E01B4BDB68C3F3022306
:103BF80000B5C3F1070EBEF1040F03F1040C28BF92
:103C08004FF0040EBCF1060F1CD9A3F1030C4FF0C2
:103C1800FF3303FA0CF322EA03024FF0FF3303FAEF
:103C28000EF321EA030303FA0CF313431B010028E4
:103C3800DBB20ADB00F1604000F5614080F8003338
:103C48005DF804FB00229446E7E7044A00F00F0001
:103C5800024413765DF804FB00ED00E0FCEC00E0A4
:103C6800002807DB044A4109012300F01F008340B4
:103C780042F82130704700BF00E100E00138B0F1A0
:103C8800807F01D30120704710B44FF0E023074C28
:103C980058614FF0F00C84F823C000220721104629
:103CA8009A615DF8044B1961704700BF00ED00E0B0
:103CB800704700BF704700BF704700BF704700BF24
:103CC800704700BF704700BF704700BF704700BF14
:103CD800704700BF704700BF704700BF002800F062
:103CE8003C812DE9F04190F85C30044603F0FF0276
:103CF800002B74D02268936923F010039361FEF7B8
:103D0800DBFE054604E0FEF7D7FE401B0A285CD818
:103D180023689A691207F6D49A6942F001029A61F7
:103D2800FEF7CAFE054604E0FEF7C6FE401B0A2859
:103D38004BD821688B69DB07F6D58B698F4A43F02E
:103D4800020391428B6100F0F180237C012B8B6987
:103D58000CBF23F0400343F040038B61637C012BCD
:103D68008B690CBF43F4804323F480438B61A37CAD
:103D7800012B8B690CBF23F4805343F480538B6170
:103D88008B69A068E26823F4407303438B618B69F5
:103D980023F0A4038B610B69012A23F010030B6144
:103DA8003DD0002A3FD0022A8B6900F0E38043F01F
:103DB80080038B610B69032A43F010030B6132D136
:103DC8008B6943F020038B612DE0236E032243F0BF
:103DD8000103236684F85C200120BDE8F081D0F857
:103DE8009030674984F85D20664A67486066C4E990
:103DF8001A126648664A6749C4E91C02664A674857
:103E0800C4E91E12664A6749C4E92002664AC4E941
:103E18002212002B00F08F80204698476AE78B69B2
:103E280043F004038B61D4E90623013B013A1B02EA
:103E380043EA4263226A013A13436269013A43EA58
:103E48000243B0F5407FCB610ED1D4E90B03A26ADF
:103E5800013B01381B01013A43EA00231343626A1C
:103E6800013A43EA0243CB60D1F8C030E06B4F4AD5
:103E780003439142C1F8C03071D04D484D4B4E4E6E
:103E88004E4D4F4F814202F58B4202F1700218BF2E
:103E98001A46A3F1D80318BF984600F57D50A3F140
:103EA800180300F1100018BF1E46A3F1D80314BF71
:103EB8001F468446A3F1D803A0F1400014BF9C46D6
:103EC8008646A3F14003A0F5E26014BF9E46A846CB
:103ED80003F5C66318BF0346D1F88000656B2364F9
:103EE80020F4F81040EA0540C1F88000D1F88000BD
:103EF800A56BC4F844E020F0706040EA0560C1F8A2
:103F08008000591C9142C4E912C72665C4F8548040
:103F180015D9002143F8041B9342FBD30020012349
:103F2800206684F85C30A065BDE8F081254B6268A6
:103F3800C3F8002509E7244BC4F890306CE7013A30
:103F4800D21A92080132520803EBC2020020002163
:103F5800E3E802019A42FBD1E0E7012070471B4ADF
:103F6800DFF874801A4E1B4FDFF870C0DFF870E07E
:103F7800104BB1E743F020038B6154E70064004025
:103F8800C13C0008C53C0008B93C0008D13C000809
:103F9800C93C0008CD3C0008DD3C0008D53C0008C1
:103FA800D93C0008E13C0008BD3C0008006800401E
:103FB800006C004050A7004000AD004018AD004024
:103FC80028AC00400060004049110008A0AA004049
:103FD800B0A90040D8A80040C8A9004000A80040E7
:103FE800C0A7004090F85C20013A012A034605D991
:103FF800026E42F0020201201A66704770B48A68A5
:104008004869D1E90354D1E90061920756B942EAF7
:10401800C56202431B6C42EA0442002070BC43F8AC
:10402800212070475B6C44EA457443F8314003EB48
:10403800C1031043586070BC0020704790F85C20A2
:10404800012A034605D0026E42F0040201201A66D6
:1040580070470068022283F85C208269002122F000
:104068000102826108461966704700BFF0B590F8F2
:104078005C30022B86460BD10568D5F8C43013F4A2
:10408800001C0BD0036E43F4007303660120F0BDDF
:10409800036E43F0080303660120F0BDD5F8C46041
:1040A8004B680F6988680C68C6F30146002B37D146
:1040B800074347EA8447D1E9060303434869CC68C4
:1040C8000343086A43EA006343EA0443DEF8540002
:1040D80006EBC60440F8347000EBC400134C436090
:1040E800CB68E35CA3B19378D7781B0443EA0763F2
:1040F80017783B43577843EA07230CEB00070CF18A
:10410800040CBB60CB68E35C9C4502F10402EAD373
:104118000123B340C5F8CC300020CEF85830F0BDAC
:104128002743074347F08047C5E700BF98AB00081F
:104138002DE9F04190F85C40022C0DD1402905682A
:1041480010D0D5F8984024076ED1036E43F48073DD
:1041580003660120BDE8F081036E43F0080303669F
:104168000120F7E7D5F890402607EED0D5F8904023
:1041780014F0807418BFD5F88040D5F8907018BF37
:10418800C4F34024C7F3012707EB0408846C08EB49
:10419800C80604EBC604266806F080465660002E62
:1041A8005DD12668C6F38A461660266806F0005672
:1041B8009660266806F000461661A688D661B4F8AF
:1041C80006C00CF00F0CC2F80CC0666806F4801626
:1041D8005661666806F400169661E67906F07F0671
:1041E8001662224E676816F80CE04FEAD77CC2F8D0
:1041F80024C0BEF1000F10D0013B04F1070EF446B5
:104208001EF8015F03F8015FD568ACF1060C755D17
:10421800ACEB040C6545F2D80568402923D0C5F8F5
:104228009C800020BDE8F081D5F8984014F0807497
:1042380018BFD5F88040D5F8987018BFC4F300248B
:10424800C7F3012707EB0408C46C08EBC80604EBA6
:10425800C604266806F080465660002EA1D026685F
:1042680026F06046A0E7C5F89480DAE798AB000826
:10427800034690F85C000138012805D91A6E42F00F
:10428800020201201A6670471B6870B411F0070516
:10429800986D01F0380409D0C60707D4DD6D45F0E4
:1042A8000105DD6554B184072FD407E004B3860700
:1042B8001ED4DE6D46F00106DE6525BB11F4E07FF5
:1042C80001D0460721D411F4F05F01D005071CD4B2
:1042D80011F4604F01D0C40617D411F4403F01D047
:1042E800860612D411F47C0F13D045060DD410E0C5
:1042F80011F4E07F21D046071FD4DE6D46F0010699
:10430800DE65002DCED0C507CCD5D86D40F00200B3
:10431800D8650C0604D5D3F8DC001043C3F8DC00DC
:10432800C80504D5D3F8E0000243C3F8E0205A6D6D
:104338000A43002070BC5A65704711F4F05F01D041
:104348000607DAD511F4604F01D0C606D5D511F4A9
:10435800403F01D08606D0D511F47C0FD1D0460657
:10436800CBD5002D9ED0CEE703681A6D596D2DE987
:10437800F04F02EA010B1A6D596D1F6D02EA010A2E
:104388005A6D1D6D17405A6D1E6D15405A6DD3F844
:104398005480D3F85090164019F0400F81B004466D
:1043A8000BF4E05B0AF0070A07F0380705F471051B
:1043B80006F4602603D018F0400F40F0938019F4FB
:1043C800807F02D018F4807F7FD1BBF1000F06D028
:1043D80023685946C3F850B02046636E9847BAF12F
:1043E800000F06D023685146C3F850A02046A36E9C
:1043F80098472FB1236839461F652046E36E9847D2
:1044080019F4007F02D018F4007F56D119F0800FFC
:1044180002D018F0800F44D119F4005F02D018F4CC
:10442800005F35D119F4004F02D018F4004F26D19F
:1044380019F4804F02D018F4804F17D136B1226892
:10444800D4F88C30166531462046984725B1236844
:104458001D65236E2B432366236E002B47D0D4F8AB
:104468008830204601B0BDE8F04F184723684FF464
:1044780080421A65236E43F080032366DEE72368D3
:104488004FF400421A652046D4F884309847CFE7A5
:1044980023684FF400521A652046D4F880309847B4
:1044A800C0E72368D3F8D410D3F8DC20802018653F
:1044B8001140636F20469847AEE723684FF40072B7
:1044C8001A652046236F9847A0E72368D3F8D810C9
:1044D800D3F8E0204FF4807018651140A36F204690
:1044E800984772E740221A65C36F984767E701B09B
:1044F800BDE8F08F704700BF806A0368DA68D103AF
:1045080003D5D0F8303106211847DA68920303D56D
:10451800D0F8343106211847DA68510306D4DA682E
:10452800120307D5D0F83C3106211847D0F83831A6
:1045380006211847DA68910206D4DA68520206D5CD
:10454800D0F8283106211847D0F820311847DB6801
:10455800DB0203D5D0F82C3106211847704700BF7D
:10456800806AD0F8243118470346806AD0F8E020E2
:10457800934217D0D0F8E420934214D0D0F8E82022
:1045880093422ED0D0F8EC20934242D0D0F8F020BD
:10459800934241D0D0F8F420934245D0D0F8F82087
:1045A800934226D070470023194602684FEAC31C7D
:1045B80002EBC31310B4D3F88C40E40304D5D0F84D
:1045C80030315DF8044B1847D3F88C40A4030BD462
:1045D800D3F88C4064030FD5D0F838315DF8044B1C
:1045E800184701231946E0E7D0F834315DF8044B49
:1045F800184705231946D8E7D3F88C4024030ED46E
:10460800D3F88C40640212D5D0F828315DF8044BF9
:10461800184702231946C8E703231946C5E7D0F807
:104628003C315DF8044B184704231946BDE7D3F81D
:104638008C40240204D5D0F840315DF8044B18476B
:10464800D3F88C40E40104D5D0F844315DF8044B2C
:104658001847D3F88C40A40104D5D0F850315DF840
:10466800044B1847D3F88C40640104D5D0F8543172
:104678005DF8044B1847D3F88C301B0104D5D0F8EB
:1046880058315DF8044B18476244D2F88C30DC008E
:1046980004D5D0F85C315DF8044B1847D2F88C305B
:1046A8009B0004D5D0F84C315DF8044B1847D2F87C
:1046B8008C305C0004D5D0F848315DF8044B1847BD
:1046C800D2F88C30DB0204D5D0F82C315DF8044BDD
:1046D80018475DF8044B7047704700BF704700BF2C
:1046E800704700BF704700BF704700BF704700BFEA
:1046F800704700BF704700BF704700BF704700BFDA
:10470800704700BF704700BF704700BF704700BFC9
:10471800704700BF704700BF704700BF704700BFB9
:10472800704700BF704700BF704700BF704700BFA9
:10473800704700BF704700BF704700BF002800F0F7
:10474800A68010B590F8DD30D0F8642182B0044618
:10475800002B35D15549564B5648C4E93F13564BA3
:104768005649C4E94103564B5648C4E94313564BCE
:104778005649C4E94503564B5648C4E94713564BB6
:104788005649C4E94903564B5648C4E94B13564B9E
:104798005649C4E94D03564B5648C4E94F13564B86
:1047A8005649C4E95103564B5648C4E95313564B6E
:1047B8005649C4E95503564BC4E95713002A62D039
:1047C800A16800230220C907C4E93833C4E93A3391
:1047D800C4E93C3384F8DD00C4F8F8300FD520680C
:1047E8004C4B984255D00168236921F4704103F479
:1047F80040431943636903F440530B430360204665
:104808009047A3689B0708D52168E3680A6803F402
:10481800407322F4407213430B60002301221846B0
:10482800C4E90633C4E90833C4E90C33C4E90E33D8
:10483800C4E91033C4E91333C4E91533C4E91733A1
:10484800C4E91A33C4E91C33C4E91E33C4E921336B
:10485800C4E92333C4E9253384F8DD2084F8DC3047
:10486800A362C4F8A030C4E92933C4E92B33C4E9EE
:104878002F33C4E93133C4E93333C4F8B430C4F84E
:10488800D83002B010BD244AC4F8642198E701204A
:10489800704703F52843196E41F0806119661B6E55
:1048A80003F080630193019B9DE700BF294700083F
:1048B8002D470008314700083547000839470008E8
:1048C8003D470008414700082147000825470008E0
:1048D8001D47000819470008FD440008E546000880
:1048E800E9460008ED460008F1460008F5460008CC
:1048F800F9460008FD46000801470008054700087A
:10490800094700080D470008114700081547000827
:10491800E146000800680140B576000890F8DC30F0
:10492800012B30D00223012280F8DD30036880F8A3
:10493800DC20B1F1FF3FD3F8CC2315D042F00202BE
:10494800C3F8CC23D3F8CC2322F00C020A43C3F8D3
:10495800CC23D3F8CC2342F00102C3F8CC230123A3
:1049680080F8DD300020704722F00202C3F8CC2323
:10497800D3F8CC2342F00102C3F8CC23012380F8FA
:10498800DD30002070470220704700BF70B50D462B
:104998000446FEF791F86E1C0BD12268D2F88833D2
:1049A800D903FBD50020012384F8DD3084F8DC002E
:1049B80070BD06462368D3F88833DB03F2D4FEF7CC
:1049C8007BF8831BAB4201D8002DF3D1072384F871
:1049D800DD30032070BD00BF90F8DDC0BCF1020FD0
:1049E8002CD003460220F0B4062983F8DD00D2E972
:1049F8000276D2E90045186815D000EBC111D1F84C
:104A0800802022F007023A4322F018023243C1F80C
:104A18008020C1F89440C1F89850012283F8DD2025
:104A28000020F0BC7047026822F007023A4322F0E7
:104A380018023243026044618561EEE75FFA8CF048
:104A4800704700BF90F8DDC0BCF1020F03465FFA63
:104A58008CF03ED093F8DC00012800F0258170B47A
:104A68001868022483F8DD40D0F8B063D0F8B45356
:104A7800D0F8B8430A2924D8DFE811F045004D00E2
:104A880064007E009900B400CF00E500FD000B0033
:104A98002C00116856688904B60406F4801601F4DF
:104AA80040213143D2E9026262F39544B20402F430
:104AB800C00225F4F8050A432A43C0F8B423C0F815
:104AC800B8430020012283F8DD2083F8DC0070BCA5
:104AD80070477047116856680906360606F0806602
:104AE80001F040713143D2E9026262F31B6432067D
:104AF80002F0C05225F0F8550A432A43C0F8B423FF
:104B0800C0F8B843DDE70022C0F8B023C0F8B423EA
:104B1800C0F8B823D5E711685468956804F0040410
:104B280001F003012143146905F018020A4326F035
:104B38003F06324304F020011143C0F8B023C0F807
:104B4800B013BEE71168546895688901A40104F49C
:104B58008074C9B221431469AA0102F4C0620A43ED
:104B680026F47C66A101324301F400611143C0F8C8
:104B7800B023C0F8B013A4E7116854689568090316
:104B8800240304F4804401F44051214314692A03A6
:104B980002F4C0320A4326F47C362103324301F47E
:104BA80000311143C0F8B023C0F8B01389E7116889
:104BB800546895688904A40404F4801401F440211D
:104BC80021431469AA0402F4C0020A4326F47C06AD
:104BD800A104324301F400011143C0F8B023C0F826
:104BE800B0136EE71168546895680906240604F046
:104BF800806401F04071214314692A0602F0C05212
:104C08000A4326F07C562106324301F00051114335
:104C1800C0F8B023C0F8B01353E71168566801F024
:104C2800030106F004063143D2E9026262F3030489
:104C380006F0180225F01F050A432A43C0F8B423DA
:104C4800C0F8B8433DE7116856688901B60106F413
:104C58008076C9B23143D2E9026262F38914B201A3
:104C680002F4C06225F4F8650A432A43C0F8B42365
:104C7800C0F8B84325E7116856680903360306F4F7
:104C8800804601F440513143D2E9026262F30F34A5
:104C9800320302F4C03225F4F8350A432A43C0F837
:104CA800B423C0F8B8430CE70220704790F8DD2021
:104CB800022A0346D0B219D093F8DC20012A16D074
:104CC8001868022210B483F8DD20D0F8B843002217
:104CD80064F31D014FF0010CC0F8B81383F8DDC070
:104CE80083F8DC2010465DF8044B704770470220BB
:104CF800704700BFF0B590F8DD40022C0346E0B2E3
:104D080053D093F8DC00012800F0D780012402205A
:104D180083F8DC4083F8DD001D681668D5F8D043B9
:104D2800D5F8D403013906F0010CC6F340061F2953
:104D380011D8DFE801F03B5310691010107F1010F4
:104D480010101010109510101010101010101010D6
:104D58001010101010AA072283F8DD20002283F813
:104D6800DC2093F8DD20072A36D004F07F32C5F81E
:104D7800D02320F4004222F08002C5F8D423D5F8CD
:104D8800D02304F080341443C5F8D043D5F8D413A5
:104D980048F280021040084300220121C5F8D403DC
:104DA800104683F8DD1083F8DC20F0BD66F3104070
:104DB800D2E90276516807F0780201F002010A434D
:104DC80006F080010A4342EA8C0224F0FE041443F0
:104DD80093F8DD20072AC8D10120F0BD516866F399
:104DE8005140D2E90276090201F400713A0241EA1F
:104DF8008C2102F4F0420A43310201F4004124F408
:104E08007E440A431443ACE7516866F39240D2E902
:104E18000276090401F400313A0441EA8C4102F4B3
:104E2800F0020A43310401F4000124F47E040A4329
:104E3800144396E7516866F3D340D2E9027609062F
:104E480001F000713A0641EA8C6102F0F0420A432F
:104E5800310601F0004124F07E440A43144380E700
:104E6800516820F4801001F0020141EA8C0120F021
:104E7800FE000843D2E9021701F0780207F080012A
:104E88000A4342EA065210436BE75168090220F4CC
:104E9800031001F4007141EA8C2120F47850084392
:104EA800D2E902170A02390202F4F04201F4004181
:104EB8000A4342EA4652104353E70220F0BD00BFBE
:104EC80090F8DD20022A0346D0B21AD093F8DC20ED
:104ED800012A15D01868022283F8DD20D0F8D423DF
:104EE80001F0407122F040724FF0000C0A4301219A
:104EF800C0F8D423604683F8DD1083F8DCC070471F
:104F08000220704790F8DDC0BCF1020F03465FFA3B
:104F18008CF020D093F8DC0001287CD04FF0010CF5
:104F28000220013983F8DCC083F8DD001F2913D87B
:104F3800DFE801F02330123D1212124A1212121247
:104F480012121257121212121212121212121212F4
:104F580012121264012070470721002283F8DD1025
:104F680083F8DC2093F8DD20072AF3D00020012203
:104F780083F8DD2083F8DC00704719689068D1F861
:104F8800082422F0030242EA400242F00102C1F87A
:104F98000824E7E719689068D1F8082422F44072D9
:104FA80042EA402242F48072C1F80824DAE719681C
:104FB8009068D1F8082422F4403242EA404242F490
:104FC8008032C1F80824CDE719689068D1F8082420
:104FD80022F0407242EA406242F08072C1F808242E
:104FE800C0E719689068D1F80C2422F0030242EA5D
:104FF800400242F00102C1F80C24B3E71968906836
:10500800D1F80C2422F4407242EA402242F4807221
:10501800C1F80C24A6E70220704700BF90F8DDC055
:10502800BCF1020F03465FFA8CF000F0908093F811
:10503800DC00012800F08C804FF0010C02200139BF
:1050480010B483F8DCC083F8DD001F2911D8DFE82D
:1050580001F02370103810101046101010101010A6
:1050680010541010101010101010101010101010F4
:1050780010620721002283F8DD1083F8DC2093F802
:10508800DD20072A19D00020012283F8DD2083F8CB
:10509800DC005DF8044B7047D2E900421868D0F88C
:1050A8000814D20142EA840221F0BC010A43C0F884
:1050B800082493F8DD20072AE5D101205DF8044B88
:1050C8007047D2E900421868D0F80814D20542EABD
:1050D800844221F43C010A43C0F80824CFE7D2E90E
:1050E80000421868D0F80814D20742EA846221F016
:1050F8003C410A43C0F80824C1E7D2E900421868D5
:10510800D0F80C14D20142EA840221F0BC010A430F
:10511800C0F80C24B3E7D2E900421868D0F80C14A0
:10512800D20342EA842221F43C410A43C0F80C2409
:10513800A5E7D2E900421868D0F80814D20342EA79
:10514800842221F43C410A43C0F8082497E77047B9
:105158000220704710B4CC0706D50468D4F8D033C1
:1051680062F30003C4F8D0338B0706D50468D4F87B
:10517800D03362F30823C4F8D0334C0706D504684B
:10518800D4F8D03362F31043C4F8D0330B0706D5F4
:105198000468D4F8D03362F31863C4F8D033CC066B
:1051A80006D50468D4F8D43362F30003C4F8D433C2
:1051B8008B0606D50168D1F8D43362F30823C1F809
:1051C800D4335DF8044B704790F8DDC0BCF1020F92
:1051D80003465FFA8CF000F0CD8093F8DC000128DC
:1051E80000F0C98030B5012483F8DC401868022437
:1051F80083F8DD402029D0F88053D0F8FC431AD832
:10520800002900F0E78001F1FF3CBCF11F0F00F21C
:10521800D380DFE80CF0A090D17FD1D1D16DD1D16E
:10522800D1D1D1D1D162D1D1D1D1D1D1D1D1D1D1D5
:10523800D1D1D1D1D152B1F5807F00F0AE8028D83C
:10524800402900F09A80802940F0DA80D2E90012E3
:10525800090901F4E04124F4E0440C43D0F8F813C0
:10526800120402F4F81221F4F811C0F8F813D0F877
:10527800F8130A43C0F8F82393F8DD20072A58D01A
:10528800C0F8FC430020012283F8DD2083F8DC000D
:1052980030BDB1F5007F40F0A780D2E900120901C6
:1052A80001F4E00124F4E0040C43D0F8F81392066A
:1052B80002F0F84221F0F841D7E7D2E90012090BD1
:1052C80001F0700124F070040C43D0F8F813520177
:1052D80002F4787221F47871C7E75188526861F353
:1052E8000204D0F8F81302F01F0221F01F01BCE7F6
:1052F800D2E90012C0F8C82393F8DD404A0225F02D
:10530800606502F06062072C45EA020511D0C0F81A
:105318008053B7E7D2E90012C0F8C42393F8DD4000
:105328008A0125F0E07502F0E072072C45EA0205D3
:10533800EDD1012030BDD2E90012C0F8C02393F8A6
:10534800DD40CA0025F4601502F46012072C45EA16
:105358000205DCD1EDE7D2E90012C0F8BC2393F8CE
:10536800DD4025F4E02501F4E022072C45EA02059A
:10537800CDD1DEE7704702207047D2E90012090A52
:1053880001F4E06124F4E0640C43D0F8F8139202CD
:1053980002F4F84221F4F84167E7D2E9001224F454
:1053A800E02401F4E0210C43D0F8F813520502F090
:1053B800787221F0787158E7072283F8DD2093F896
:1053C800DD204FF0000C072A83F8DCC0B1D00F298C
:1053D8009DD955E7072283F8DD2093F8DD2083F86F
:1053E800DC10072A93D1A4E7072283F8DD2093F87D
:1053F800DD200021072A83F8DC107FF441AF98E70D
:10540800072283F8DD2093F8DD200021072A83F89E
:10541800DC108ED034E700BF90F8DDC0BCF1020F7D
:1054280003465FFA8CF023D093F8DC0001287CD087
:105438004FF0010C0220202983F8DCC083F8DD003E
:1054480017D831B301391F2923D8DFE801F0564EA8
:1054580022462222223E22222222222222662222A0
:10546800222222222222222222222222225E0120FB
:105478007047B1F5807F5AD01CD840295FD0802969
:1054880007D11868D0F8041462F31031C0F8041476
:1054980005E00721002283F8DD1083F8DC2093F86B
:1054A800DD20072AE3D00020012283F8DD2083F8DD
:1054B800DC007047B1F5007FEBD11868D0F8041410
:1054C80062F31C61C0F80414E9E71868D0F8001406
:1054D80062F39641C0F80014E1E71868D0F80014A8
:1054E80062F31031C0F80014D9E71868D0F8001436
:1054F80062F38A11C0F80014D1E71868D0F80014D4
:1055080062F30401C0F80014C9E71868D0F804145D
:1055180062F30401C0F80414C1E71868D0F8001455
:1055280062F31C61C0F80014B9E7022070471868DC
:10553800D0F8041462F39641C0F80414AFE7186871
:10554800D0F8041462F38A11C0F80414A7E700BF66
:1055580090F8DD30022B8446D8B200F06B819CF8BD
:10556800DC30012B00F067812DE9F04F0120022388
:1055780083B006298CF8DC008CF8DD30DCF80000FC
:10558800556900F0C68000EBC11E202DDEF8803082
:1055980023F07043CEF88030DEF88030DEF8E88003
:1055A800DEF8E460D0F8A04323F020094FEAC117E1
:1055B80049EA05090ED09369022B0BD0032B00F0A2
:1055C8003481042B06BF29F0800949F4807929F435
:1055D800D07903E029F4C07949F02009D369956DA1
:1055E80029F4006949EA0309136A29F4806949EA38
:1055F8000309536A29F0C06949EA0309936A29F043
:10560800006949EA0309D36A019329F0704949EA14
:105618000309536B29F40039B3F1005F08BF49F45B
:10562800003926F4807A966B29F04003334323F43B
:1056380080232B43D56B23F0FC7365F30508156DA8
:1056480023F4803328F000492B43D2F84880156CA6
:1056580028F4805B49EA0509556CBBF5606F4AEA96
:10566800050A53D02AF4F05A48EA0A0AD56C2AF4F3
:10567800804A4AEA0508D2F854A0052909D8DFE883
:1056880001F0CEC8C2BC03B6166B24F4001444EA79
:1056980046140744CEF88030C7F8E890C1EBC10340
:1056A800C7F8E480C7F8D4A0C0F8A043D2E901A99C
:1056B800D2E903479B00203315684CF803500CEBE4
:1056C8000306C6E901A9C6E9034705290AD8DFE8A0
:1056D80001F003847D766F68D0F8843343F00203C9
:1056E800C0F88433019B43B9DEF88030D26D23F4CF
:1056F800007343EA4223CEF88030002001238CF85F
:10570800DD308CF8DC0003B0BDE8F08F402EADD161
:10571800A8E70468D0F8A01324F020042C43202D17
:1057280024F0C00360D09569022D5DD0032D00F0F0
:105738008480042D0CBF43F0800324F0E003D46977
:1057480023F400632343146A23F480632343546AD5
:1057580023F0C0632343946A23F000632343D46A8D
:1057680023F0404343EA8403546B23F0005323435C
:10577800146B036021F480312143C0F8A013D2E9EF
:105788000213D2E900541269CCF8D820CCE932547B
:10579800CCE93413D0F8843343F00103C0F88433E0
:1057A800ABE7D0F8843343F04003C0F8843399E77B
:1057B800D0F8843343F02003C0F8843392E7D0F85C
:1057C800843343F01003C0F884338BE7D0F8843374
:1057D80043F00803C0F8843384E7D0F8843343F0F7
:1057E8000403C0F884337DE743F02003A7E7166B72
:1057F80024F4800444EA86144BE7166B24F48014DE
:1058080044EA061445E7166B24F4002444EAC60467
:105818003FE7166B24F4802444EA860439E7166BC4
:1058280024F4003444EA460433E729F4807949F043
:105838008009D3E670470220704743F040037EE7B3
:1058480090F8DD30022B8446D8B246D09CF8DC3084
:10585800012B6DD0DCF80000022310B58CF8DD3088
:1058680000EBC1131468D3F8EC3023F0100343EABB
:105878000413546823F480132343D46823F4803337
:105888002343946823F4003323439469012C4FEA9B
:10589800C11E17D08644CEF8EC3006290BD8DFE8B5
:1058A80001F0242B323904401D00D0F8843343F032
:1058B8002003C0F88433002001238CF8DD308CF8F5
:1058C800DC0010BD1469526923F00403234323F05C
:1058D8000203134343F00103DCE77047D0F8843335
:1058E80043F00103C0F88433E5E7D0F8843343F08C
:1058F8000203C0F88433DEE7D0F8843343F00403AE
:10590800C0F88433D7E7D0F8843343F00803C0F8ED
:105918008433D0E7D0F8843343F01003C0F88433DD
:10592800C9E7D0F8843343F04003C0F88433C2E7B2
:105938000220704700B590F8DDE0BEF1020F844602
:105948005FFA8EF02FD09CF8DC00012800F0C880A8
:1059580001208CF8DC0002208CF8DD000A2A00F215
:10596800C280DFE802F0222C3B4B5B6B7B8A9AAA51
:105978000600DCF80020186802EBC1125968D2F85A
:10598800D030014323F0F85343EA0163C2F8D03022
:105998009CF8DD30072B00F0A080002001238CF854
:1059A800DD308CF8DC005DF804FBDCF8003003EB3C
:1059B800C1130022C3F8CC20C3F8D020E8E7DCF8F4
:1059C80000001A685B6800EBC1111343D1F8CC20C2
:1059D80022F01F021343C1F8CC30D9E7DCF80020CD
:1059E800186802EBC1125968D2F8CC30014323F48D
:1059F800F86343EA8113C2F8CC30C9E7DCF8002029
:105A0800186802EBC1125968D2F8CC30014323F46C
:105A1800F83343EA0133C2F8CC30B9E7DCF80020A8
:105A2800186802EBC1125968D2F8CC30014323F44C
:105A3800F80343EA8143C2F8CC30A9E7DCF8002038
:105A4800186802EBC1125968D2F8CC30014323F030
:105A5800F85343EA0163C2F8CC3099E7DCF8000058
:105A68001A685B6800EBC1111343D1F8D02022F00B
:105A78001F021343C1F8D0308AE7DCF80020186809
:105A880002EBC1125968D2F8D030014323F4F8630D
:105A980043EA8113C2F8D0307AE7DCF800201868AE
:105AA80002EBC1125968D2F8D030014323F4F8331D
:105AB80043EA0133C2F8D0306AE7DCF800201868FE
:105AC80002EBC1125968D2F8D030014323F4F8032D
